:020000040000FA
:0404000007EF02F010
:0A0408007F82FCED11F0B7EF11F058
:1010000000636C6F636B207469636B732F7365632C
:10101000203D2025640A0A006275726E2074696D95
:1010200065203D2025322E32646D730A0A007461FA
:10103000736B20312072756E6E696E670A00746181
:10104000736B20322072756E6E696E670A00746170
:10105000736B20332072756E6E696E670A0074615F
:10106000736B20342072756E6E696E670A0074614E
:0F107000736B20352072756E6E696E670A000013
:1010800043C0D9FF44C0DAFFDECFF6FFDDCFF7FF64
:101090000800F550250AD8A450EF08F052EF08F0E8
:1010A0004EEF0AF043C0D9FF44C0DAFFDE2A000E3B
:1010B000DD22000E786E000E776E77C07BF078C070
:1010C0007CF079687A6843C0D9FF44C0DAFFDECF8C
:1010D000F6FFDDCFF7FF0800F5502A0AD8A473EF1A
:1010E00008F075EF08F0A0EF08F043C0D9FF44C046
:1010F000DAFFDE2A000EDD2245C0D9FF46C0DAFF46
:10110000DFCF47F0020EDE26DFCF48F0000EDD22F3
:1011100047C0D9FF48C0DAFFDECF77F0DDCF78F0E7
:1011200078BE97EF08F095EF08F0FFEF08F07B80AE
:10113000776C781ED8B0782AFFEF08F0FFEF08F040
:1011400043C0D9FF44C0DAFFDECF08F0DDCF09F09D
:10115000FAEC0BF008C077F009C078F0B9EF08F0AE
:1011600043C0D9FF44C0DAFFDE2A000EDD22B9EF0A
:1011700008F0D00E476EFF0E486E43C0D9FF44C042
:10118000DAFFDECFF6FFDDCFF7FF0800F550496E3E
:101190004A6A4750492648504A224A500AE10A0EF4
:1011A000495CD8A0D6EF08F0D9EF08F0010EDAEFCD
:1011B00008F0000E536E546AF2EF08F043C0D9FFF6
:1011C00044C0DAFFDECFF6FFDDCFF7FF0800F550B1
:1011D000016E026A1DEC12F001C053F002C054F01F
:1011E000F2EF08F053505410D8A4F9EF08F0FBEFD9
:1011F00008F0B0EF08F0FFEF08F0FFEF08F043C091
:10120000D9FF44C0DAFFDECFF6FFDDCFF7FF0800DD
:10121000F5502E0AD8A40FEF09F011EF09F0ACEF4A
:1012200009F0000E7A6E000E796E43C0D9FF44C0FB
:10123000DAFFDE2A000EDD2243C0D9FF44C0DAFF08
:10124000DECFF6FFDDCFF7FF0800F5502A0AD8A45D
:101250002CEF09F02EEF09F04BEF09F043C0D9FF56
:1012600044C0DAFFDE2A000EDD2245C0D9FF46C0A9
:10127000DAFFDFCF47F0020EDE26DFCF48F0000EA8
:10128000DD2247C0D9FF48C0DAFFDECF79F0DDCFDD
:101290007AF0ACEF09F043C0D9FF44C0DAFFDECFEB
:1012A00008F0DDCF09F0FAEC0BF008C079F009C0C6
:1012B0007AF064EF09F043C0D9FF44C0DAFFDE2AB8
:1012C000000EDD2264EF09F0D00E476EFF0E486E6F
:1012D00043C0D9FF44C0DAFFDECFF6FFDDCFF7FF12
:1012E0000800F550496E4A6A4750492648504A223C
:1012F0004A500AE10A0E495CD8A081EF09F084EF58
:1013000009F0010E85EF09F0000E556E566A9DEF4B
:1013100009F043C0D9FF44C0DAFFDECFF6FFDDCFCE
:10132000F7FF0800F550016E026A1DEC12F001C0D3
:1013300055F002C056F09DEF09F055505610D8A454
:10134000A4EF09F0A6EF09F05BEF09F0ACEF09F0AC
:10135000ACEF09F0ACEF09F043C0D9FF44C0DAFFAD
:10136000DECFF6FFDDCFF7FF0800F550640AD8B4F2
:10137000BCEF09F0BEEF09F0D2EF09F043C0D9FF8E
:1013800044C0DAFFDECFF6FFDDCFF7FF0800F550EF
:10139000690AD8A4CEEF09F0D0EF09F014EF0AF0F3
:1013A000D2EF09F043C0D9FF44C0DAFFDE2A000EB5
:1013B000DD2245C0D9FF46C0DAFFDFCF47F0020E7D
:1013C000DE26DFCF48F0000EDD2247C0D9FF48C03F
:1013D000DAFFDECF4BF0DDCF4CF0000E4CBEFF0E3F
:1013E0004D6E4E6E4F6E506E516E526E41C01DF07E
:1013F00042C01EF04BC01FF04CC020F04DC021F089
:101400004EC022F04FC023F050C024F051C025F050
:1014100052C026F06EEC0AF01DC041F01EC042F032
:101420006DEF0AF06DEF0AF043C0D9FF44C0DAFF58
:10143000DECFF6FFDDCFF7FF0800F550250AD8A470
:1014400024EF0AF026EF0AF03FEF0AF043C0D9FF7D
:1014500044C0DAFFDE2A000EDD22000E036E250EE8
:10146000026E41C004F042C005F07AEC10F0000EAC
:10147000426E010E416E6DEF0AF06DEF0AF043C04F
:10148000D9FF44C0DAFFDE2A000EDD22000E426ED4
:10149000000E416E6DEF0AF06DEF0AF043C0D9FF08
:1014A00044C0DAFFDECFF6FFDDCFF7FF0800F550CE
:1014B000026E036A41C004F042C005F07AEC10F0FD
:1014C00043C0D9FF44C0DAFFDE2A000EDD22000E41
:1014D000426E010E416E6DEF0AF012001FC037F030
:1014E00020C038F021C039F022C03AF023C03BF0D0
:1014F00024C03CF025C03DF026C03EF03EBE83EF48
:101500000AF086EF0AF0010E87EF0AF0000E356E42
:10151000366A35503610D8B490EF0AF092EF0AF0E0
:10152000A4EF0AF03E1E3D1E3C1E3B1E3A1E391E15
:10153000381E376C000E382239223A223B223C22D8
:101540003D223E22A4EF0AF07ABEA9EF0AF0ABEFEB
:101550000AF0AEEF0AF07B92AEEF0AF07ABEBBEF74
:101560000AF07A5006E17904D8B0B9EF0AF0BBEF7F
:101570000AF0C1EF0AF0000E326E010E316EC5EFB7
:101580000AF079C031F07AC032F077C033F078C019
:1015900034F035503610D8A4D0EF0AF0D2EF0AF06C
:1015A000DBEF0AF07BA4D7EF0AF0D9EF0AF0E0EF07
:1015B0000AF0DBEF0AF03306D8A03406E0EF0AF0B9
:1015C000000E406E1F0E3F6EAC0E3F24D96E000E13
:1015D0004020DA6E000EDF6E6CEF0BF03F06D8A0F5
:1015E0004006AC0E3F24D96E000E4020DA6E37C0A4
:1015F00001F038C002F039C003F03AC004F03BC03B
:1016000005F03CC006F03DC007F03EC008F00A0EF1
:10161000096E000E0A6E000E0B6E000E0C6E000EB0
:101620000D6E000E0E6E000E0F6E000E106ED9ECD9
:101630000DF001C027F002C028F003C029F004C05B
:101640002AF005C02BF006C02CF007C02DF008C012
:101650002EF027C013F029C014F0DAEC11F013506B
:10166000300FDF6E3106D8A032063306D8A034061C
:1016700037C001F038C002F039C003F03AC004F0BE
:101680003BC005F03CC006F03DC007F03EC008F08E
:101690000A0E096E000E0A6E000E0B6E000E0C6E26
:1016A000000E0D6E000E0E6E000E0F6E000E106E10
:1016B00001EC0DF001C037F002C038F003C039F082
:1016C00004C03AF005C03BF006C03CF007C03DF056
:1016D00008C03EF06CEF0BF040BE77EF0BF04050CF
:1016E00008E13F04D8A077EF0BF079EF0BF0AFEFF4
:1016F0000BF03750381039103A103B103C103D10A9
:101700003E10D8A486EF0BF088EF0BF0EEEF0AF056
:1017100032BE95EF0BF0325006E13104D8B093EFB2
:101720000BF095EF0BF0EEEF0AF034BEA0EF0BF0EC
:10173000345008E13304D8A0A0EF0BF0A2EF0BF077
:10174000AFEF0BF07BB2A7EF0BF0A9EF0BF0EEEFD2
:101750000AF0AFEF0BF0AFEF0BF0AFEF0BF035503F
:101760003610D8A4B6EF0BF0B8EF0BF0C1EF0BF0CA
:101770007BA4BDEF0BF0BFEF0BF0E3EF0BF0C1EF7D
:101780000BF03F06D8A0400635503610D8A4CBEF5A
:101790000BF0CDEF0BF0D3EF0BF0000E306E2B0EF5
:1017A0002F6ED9EF0BF0000E306E2D0E2F6ED9EF8D
:1017B0000BF0AC0E3F24D96E000E4020DA6E2FC025
:1017C000DFFFE3EF0BF01DC012F01EC013F0AC0EF4
:1017D0003F24146E000E4020156E33C016F034C046
:1017E00017F0AEEC0FF012C01DF013C01EF0F9EFB1
:1017F0000BF01200000E166E000E156E000E0F6E2E
:10180000000E0E6E08EF0CF0084A092A08EF0CF0E3
:10181000010E146E08C0F6FF09C0F7FF0800F5506E
:10182000200AD8B416EF0CF018EF0CF037EF0CF0DC
:10183000F70E0A6EFF0E0B6E08C0F6FF09C0F7FF29
:101840000800F5500C6E0D6A0A500C260B500D2244
:101850000D5009E1050E0C5CD8A031EF0CF033EF10
:101860000CF037EF0CF0000E146E37EF0CF014C0D4
:1018700010F0116A4CEF0CF008C0F6FF09C0F7FF3A
:101880000800F550016E026A3BEC11F001C010F047
:1018900002C011F04CEF0CF010501110D8A453EF0F
:1018A0000CF055EF0CF004EF0CF063EF0CF063EF6D
:1018B0000CF0000E0F6E010E0E6E5FEF0CF0084A7A
:1018C000092AA7EF0CF008C0F6FF09C0F7FF0800CF
:1018D000F5500A6E0B6A0B50000AD8B472EF0CF088
:1018E000A7EF0CF00A502B0AD8B45FEF0CF0060AF1
:1018F000D8B459EF0CF0A7EF0CF0A7EF0CF0D00E16
:101900000A6EFF0E0B6E08C0F6FF09C0F7FF080055
:10191000F5500C6E0D6A0A500C260B500D220C1E51
:101920000D1E0C4A0D2A15C001F016C002F0000E63
:10193000046E0A0E036E54EC12F00C500124156E66
:101940000D500220166E084A092AA7EF0CF0D00E9F
:101950000A6EFF0E0B6E08C0F6FF09C0F7FF080005
:10196000F5500C6E0D6A0A500C260B500D220D50CE
:101970000AE10A0E0C5CD8A0C0EF0CF0C3EF0CF02B
:10198000010EC4EF0CF0000E126E136AD8EF0CF0CB
:1019900008C0F6FF09C0F7FF0800F550016E026AA3
:1019A0001DEC12F001C012F002C013F0D8EF0CF0E1
:1019B00012501310D8A4DFEF0CF0E1EF0CF07FEF22
:1019C0000CF0E3EF0CF00E500F10D8A4EAEF0CF07F
:1019D000ECEF0CF0FAEF0CF015C00AF016C00BF0AB
:1019E0000A1E0B1E0A4A0B2A0AC008F00BC009F097
:1019F00000EF0DF015C008F016C009F000EF0DF073
:101A00001200000E126E10BE0AEF0DF008EF0DF07E
:101A10001EEF0DF0101E0F1E0E1E0D1E0C1E0B1EB7
:101A20000A1E096C000E0A220B220C220D220E2225
:101A30000F221022010E126E1EEF0DF008BE25EFD0
:101A40000DF023EF0DF039EF0DF0081E071E061EF6
:101A5000051E041E031E021E016C000E022203223C
:101A600004220522062207220822010E121A39EF4B
:101A70000DF020EE13F0070EDE6AE806FDE20950D5
:101A80000A100B100C100D100E100F101010D8B4FF
:101A90004CEF0DF04EEF0DF0ACEF0DF0010E116EAE
:101AA0005EEF0DF0D89009360A360B360C360D363F
:101AB0000E360F361036112A5EEF0DF010AE63EFC2
:101AC0000DF065EF0DF052EF0DF069EF0DF069EFDD
:101AD0000DF0D890133614361536163617361836DC
:101AE00019361A360950015C0A5002580B50035837
:101AF0000C5004580D5005580E5006580F500758FA
:101B000010500858D8A087EF0DF089EF0DF09CEF2A
:101B10000DF00950015E0A50025A0B50035A0C5046
:101B2000045A0D50055A0E50065A0F50075A1050BD
:101B3000085A13809CEF0DF0D89010320F320E32FD
:101B40000D320C320B320A320932112E69EF0DF0D0
:101B5000ACEF0DF0ACEF0DF01250D8B4B2EF0DF0C9
:101B6000B4EF0DF0C6EF0DF01A1E191E181E171E49
:101B7000161E151E141E136C000E1422152216229A
:101B80001722182219221A22C6EF0DF013C001F0F5
:101B900014C002F015C003F016C004F017C005F021
:101BA00018C006F019C007F01AC008F0D8EF0DF001
:101BB0001200000E126E08BEE2EF0DF0E0EF0DF025
:101BC000F6EF0DF0081E071E061E051E041E031E5E
:101BD000021E016C000E02220322042205220622AC
:101BE00007220822010E126EF6EF0DF010BEFDEF77
:101BF0000DF0FBEF0DF00FEF0EF0101E0F1E0E1E7E
:101C00000D1E0C1E0B1E0A1E096C000E0A220B2252
:101C10000C220D220E220F2210220FEF0EF009507F
:101C20000A100B100C100D100E100F101010D8B45D
:101C30001CEF0EF01EEF0EF072EF0EF0010E116EA3
:101C40002EEF0EF0D89009360A360B360C360D36CC
:101C50000E360F361036112A2EEF0EF010AE33EF7F
:101C60000EF035EF0EF022EF0EF039EF0EF039EFF7
:101C70000EF00950015C0A5002580B5003580C50EA
:101C800004580D5005580E5006580F500758105064
:101C90000858D8A04EEF0EF050EF0EF062EF0EF0A5
:101CA0000950015E0A50025A0B50035A0C50045A54
:101CB0000D50055A0E50065A0F50075A1050085A28
:101CC00062EF0EF0D89010320F320E320D320C321D
:101CD0000B320A320932112E39EF0EF072EF0EF08C
:101CE00072EF0EF01250D8B478EF0EF07AEF0EF0DB
:101CF0008CEF0EF0081E071E061E051E041E031E96
:101D0000021E016C000E022203220422052206227A
:101D1000072208228CEF0EF001C001F002C002F091
:101D200003C003F004C004F005C005F006C006F0CF
:101D300007C007F008C008F09EEF0EF01200CDECCF
:101D400012F0C0EC12F0000E746E040E736E010EF1
:101D50005F6E100E606E73C061F074C062F03BEC99
:101D600012F0B3EF0EF0000E0001F56F000EF46FED
:101D7000F5BFC4EF0EF0F55109E1040EF45DD8A0F3
:101D8000C4EF0EF0C6EF0EF0CAEF0EF0B3EF0EF098
:101D9000B3EF0EF0000E7E6E000E7D6E7EBEDAEFAB
:101DA0000EF07E5009E1050E7D5CD8A0DAEF0EF052
:101DB000DCEF0EF0E0EF0EF01EEF0FF01EEF0FF075
:101DC000F4C001F0F5C002F0000E046E0A0E036EBE
:101DD00054EC12F0CC0E716E000E726E0150712632
:101DE00002507222D8907D34D96E7E34DA6E7150F2
:101DF000D9267250DA22DECF75F0DDCF76F002D828
:101E00000CEF0FF00500FA6E7550FD6E7650FE6E09
:101E1000F850FF6EFA5012007D4A7E2A7EBE1AEFFD
:101E20000FF07E5009E1050E7D5CD8A01AEF0FF08F
:101E30001CEF0FF0E0EF0EF01EEF0FF00001F44B7F
:101E4000F52BF5BF2DEF0FF0F55109E1040EF45D10
:101E5000D8A02DEF0FF02FEF0FF0CAEF0EF0B3EF79
:101E60000EF0B3EF0EF0B3EF0EF007EF02F098C0F4
:101E7000A4F099C0A5F09AC0A6F09BC0A7F043EFCC
:101E80000FF043EF0FF0D8900134036E0234046E6C
:101E9000056A04BE05060550066E0550076E05501E
:101EA000086E0550096E05500A6EA4C00BF0A5C05F
:101EB0000CF0A6C00DF0A7C00EF00F6A0EBE0F68A2
:101EC0000FC010F00FC011F00FC012F00B1E0C1E4F
:101ED0000D1E0E1E0F1E101E111E121E0B2A000EAE
:101EE0000C220D220E220F2210221122122200019A
:101EF00098510B24136E99510C20146E9A510D2099
:101F0000156E9B510E20166E9C510F20176E9D5121
:101F10001020186E9E511120196E9F5112201A6EBA
:101F20000350135C045014580550155806501658A9
:101F30000750175808501858095019581A50800A55
:101F40001B6E0A50800A1B58D8A0A9EF0FF0ABEF08
:101F50000FF043EF0FF0ADEF0FF012007BA0B3EFE7
:101F60000FF0B5EF0FF0C1EF0FF014C00BF015C07C
:101F70000CF012C00DF013C00EF091EC11F0C1EF97
:101F80000FF017BEC6EF0FF0C8EF0FF0CEEF0FF057
:101F900016C01BF017C01CF0D2EF0FF0000E1C6E25
:101FA000000E1B6E000E1A6E000E196EE6EF0FF09B
:101FB000000E036E200E026E12C004F013C005F076
:101FC0007AEC10F0194A1A2AE6EF0FF01B50195C50
:101FD0001A50800A186E1C50800A1858D8A0F3EFC7
:101FE0000FF0F5EF0FF0D8EF0FF07BB0FAEF0FF036
:101FF000FCEF0FF008EF10F014C00BF015C00CF060
:1020000012C00DF013C00EF091EC11F008EF10F0BB
:1020100014C001F015C002F068EC11F01B5001244F
:10202000126E1C500220136E16EF10F0120098C0B2
:102030006DF099C06EF09AC06FF09BC070F023EF06
:1020400010F023EF10F000019FBF36EF10F09F510A
:102050009E119D119C119B119A11991109E1140E69
:10206000985DD8A036EF10F038EF10F023EF10F0A5
:102070003AEF10F020EE98F0070EDE6AE806FDE277
:10208000180E5F6E100E606E6DC069F06EC06AF063
:102090006FC06BF070C06CF0691E6A1E6B1E6C1E08
:1020A000692A000E6A226B226C22140E6924016ECA
:1020B000000E6A20026E000E6B20036E000E6C2074
:1020C000046EFA0E056E000E066E000E076E000E10
:1020D000086ECFEC10F001C061F002C062F003C0E6
:1020E00063F004C064F03BEC12F0000E7E6E050E4F
:1020F0007D6E120004500510D8B481EF10F083EF0C
:1021000010F08EEF10F004500510D8A48AEF10F0F4
:102110008CEF10F093EF10F08EEF10F002507DEC8A
:1021200012F0CEEF10F020EE04F00450D926055046
:10213000DA22DE50DE10D8B4A0EF10F0A2EF10F0DB
:10214000BFEF10F020EE04F00450D9260550DA223B
:1021500010EE02F00450E1260550E222DE50E65C6B
:10216000E650800A0A6EDE50800A0A58D8B0BBEFEB
:1021700010F0BDEF10F0CEEF10F0BFEF10F020EE3A
:1021800002F00450D9260550DA22DE2A000EDD22A4
:10219000CEEF10F0CEEF10F0CEEF10F01200000EE8
:1021A000096E000E0A6E000E0B6E000E0C6ED9EF5B
:1021B00010F001A0DEEF10F0E0EF10F0EAEF10F009
:1021C0000550092606500A2207500B2208500C22FF
:1021D000EAEF10F0D8900536063607360836D89064
:1021E0000432033202320132015002100310041093
:1021F000D8A4FDEF10F0FFEF10F0D9EF10F009C0F8
:1022000001F00AC002F00BC003F00CC004F0120091
:1022100059C05DF05AC05EF0000E0001A96F000EBB
:10222000A86F28EF11F057C041F058C042F05D0E82
:10223000436E000E446E5BC045F05CC046F040EC5F
:1022400008F041500001A8274250A92328EF11F0BF
:102250005DC0F6FF5EC0F7FF0800F5500009D8A486
:1022600034EF11F036EF11F013EF11F0A8C057F072
:10227000A9C058F01200010E076E200E01180210BE
:10228000D8B445EF11F047EF11F062EF11F0F70EFF
:10229000036EFF0E046E01C005F002C006F003508D
:1022A000052604500622065009E1050E055CD8A05B
:1022B0005CEF11F05EEF11F062EF11F0000E076EAF
:1022C00062EF11F007C001F0026A67EF11F012002F
:1022D00001C005F002C006F072EF11F0014A022AB7
:1022E00072EF11F001C0D9FF02C0DAFFDF50D8A4AD
:1022F0007CEF11F07EEF11F06EEF11F080EF11F036
:1023000005C003F006C004F0031E041E034A042A9D
:1023100001500324016E02500420026E90EF11F070
:102320001200000E116E000E106EA4EF11F00FC01F
:1023300002F0036A0DC004F00EC005F07AEC10F054
:10234000104A112AA4EF11F010500B24D96E11502D
:102350000C20DA6EDF500F6E0F50D8A4B2EF11F0E0
:10236000B4EF11F097EF11F0B6EF11F01200D20EAA
:10237000F66E240EF76E000EF86E00EECCF010EE46
:1023800028F00900F5CFEEFFE550E150FAE100EE4C
:1023900080F04C0EEE6AE806FDE100EE77F0080EE4
:1023A000EE6AE806FDE17F907F92000EF86E000174
:1023B0009FEF0EF014BEE7EF11F0145006E1130486
:1023C000D8B0E5EF11F0E7EF11F0F5EF11F013C021
:1023D00015F014C016F0151E161E154A162A15C043
:1023E00013F016C014F0FBEF11F013C013F014C07B
:1023F00014F0FBEF11F012000600F2AA02EF12F047
:1024000004EF12F01BEF12F0F2A409EF12F00BEF41
:1024100012F01BEF12F0F294010E00019827000E4B
:1024200099239A239B239C239D239E239F231BEF69
:1024300012F01BEF12F07F921100D00E036EFF0E10
:10244000046E01C005F002C006F0035005260450DA
:10245000062206500AE10A0E055CD8A032EF12F0FF
:1024600035EF12F0010E36EF12F0000E016E026A27
:102470003AEF12F01200610E676E000E686E000EE9
:10248000576E000E586E5FC059F060C05AF0670E6C
:102490005B6E000E5C6E08EC11F057C065F058C022
:1024A00066F053EF12F0120001500302F3CF05F073
:1024B000F4CF06F001500402F35006260250030246
:1024C000F350062605C001F006C002F068EF12F0D6
:1024D00012004C2566252E202E202E204C2532253C
:1024E0002E202E202E204C2518252E202E202E206A
:1024F0002E202E202E202E202E20016E80EF12F076
:102500009EA885EF12F087EF12F080EF12F089EFAE
:1025100012F001C0ADFF12005E0E5F6E100E606E15
:102520003BEC12F0000E026E040E016E37EC0FF061
:1025300012004E0E5F6E100E606E3BEC12F0000E3D
:10254000026E030E016E37EC0FF012002E0E5F6E5E
:10255000100E606E3BEC12F0000E026E010E016E6A
:1025600037EC0FF012003E0E5F6E100E606E3BEC0B
:1025700012F0000E026E020E016E37EC0FF0120028
:10258000948C948EAB8EAC84AC98AC8A000EB06EFA
:10259000190EAF6E000EB86E1200820ED56EA00E30
:0425A000F26E1200C5
:020000040020DA
:08000000FFFFFFFFFFFFFFFF00
:020000040030CA
:0E000000FF421F1EFF8381FF0FC00FE00F4065
:00000001FF
