:020000040000FA
:0404000034EF02F0E3
:060408007B82CDED0FF038
:100418007B80D8CF01F0E8CF02F0E0CF03F09EAAAE
:1004280018EF02F01AEF02F02CEF02F09DAA1FEF6E
:1004380002F021EF02F02CEF02F09E9AAECF7AF094
:10044800000E736E010E726E2CEF02F02CEF02F0AC
:1004580003C0E0FF02C0E8FF01C0D8FF7B90100096
:0404680048EF10F059
:10100000005374617465203D20253264200D000A70
:031010000A0000D3
:1010140022C03AF023C03BF024C03CF025C03DF090
:1010240026C03EF027C03FF028C040F029C041F060
:1010340041BE1FEF08F022EF08F0010E23EF08F085
:10104400000E386E396A38503910D8B42CEF08F0D5
:101054002EEF08F040EF08F0411E401E3F1E3E1EDA
:101064003D1E3C1E3B1E3A6C000E3B223C223D22A0
:101074003E223F224022412240EF08F06DBE45EF60
:1010840008F047EF08F04AEF08F06E924AEF08F0D4
:101094006DBE57EF08F06D5006E16C04D8B055EF03
:1010A40008F057EF08F05DEF08F0000E356E010E02
:1010B400346E61EF08F06CC034F06DC035F06AC076
:1010C40036F06BC037F038503910D8A46CEF08F004
:1010D4006EEF08F077EF08F06EA473EF08F075EF89
:1010E40008F07CEF08F077EF08F03606D8A0370652
:1010F4007CEF08F0000E436E1F0E426E800E4224F9
:10110400D96E000E4320DA6E000EDF6E08EF09F090
:101114004206D8A04306800E4224D96E000E432016
:10112400DA6E3AC004F03BC005F03CC006F03DC0A6
:1011340007F03EC008F03FC009F040C00AF041C0CB
:101144000BF00A0E0C6E000E0D6E000E0E6E000EED
:101154000F6E000E106E000E116E000E126E000E59
:10116400136EF6EC0CF004C02AF005C02BF006C098
:101174002CF007C02DF008C02EF009C02FF00AC0D3
:1011840030F00BC031F02AC016F02CC017F06AEC16
:1011940010F01650300FDF6E3406D8A03506360630
:1011A400D8A037063AC004F03BC005F03CC006F0B6
:1011B4003DC007F03EC008F03FC009F040C00AF04F
:1011C40041C00BF00A0E0C6E000E0D6E000E0E6E7A
:1011D400000E0F6E000E106E000E116E000E126ED9
:1011E400000E136E1EEC0CF004C03AF005C03BF088
:1011F40006C03CF007C03DF008C03EF009C03FF017
:101204000AC040F00BC041F008EF09F043BE13EFF1
:1012140009F0435008E14204D8A013EF09F015EF98
:1012240009F04BEF09F03A503B103C103D103E10D2
:101234003F1040104110D8A422EF09F024EF09F028
:101244008AEF08F035BE31EF09F0355006E1340479
:10125400D8B02FEF09F031EF09F08AEF08F037BE6C
:101264003CEF09F0375008E13604D8A03CEF09F010
:101274003EEF09F04BEF09F06EB243EF09F045EF92
:1012840009F08AEF08F04BEF09F04BEF09F04BEF50
:1012940009F038503910D8A452EF09F054EF09F08E
:1012A4005DEF09F06EA459EF09F05BEF09F07FEFF1
:1012B40009F05DEF09F04206D8A043063850391012
:1012C400D8A467EF09F069EF09F06FEF09F0000E99
:1012D400336E2B0E326E75EF09F0000E336E2D0E49
:1012E400326E75EF09F0800E4224D96E000E432051
:1012F400DA6E32C0DFFF7FEF09F020C015F021C0A5
:1013040016F0800E4224176E000E4320186E36C06D
:1013140019F037C01AF07DEC0EF015C020F016C09D
:1013240021F095EF09F0120046C0D9FF47C0DAFF5B
:10133400DECFF6FFDDCFF7FF0800F550250AD8A46D
:10134400A6EF09F0A8EF09F0F7EF0AF046C0D9FFBD
:1013540047C0DAFFDE2A000EDD22000E6B6E000E9F
:101364006A6E6AC06EF06BC06FF06C686D6846C0E0
:10137400D9FF47C0DAFFDECFF6FFDDCFF7FF080065
:10138400F5502A0AD8A4C9EF09F0CBEF09F0F6EF1B
:1013940009F046C0D9FF47C0DAFFDE2A000EDD227D
:1013A40048C0D9FF49C0DAFFDFCF4AF0020EDE267B
:1013B400DFCF4BF0000EDD224AC0D9FF4BC0DAFF6D
:1013C400DECF6AF0DDCF6BF06BBEEDEF09F0EBEF33
:1013D40009F055EF0AF06E806A6C6B1ED8B06B2A68
:1013E40055EF0AF055EF0AF046C0D9FF47C0DAFFBF
:1013F400DECF0BF0DDCF0CF017EC0BF00BC06AF076
:101404000CC06BF00FEF0AF046C0D9FF47C0DAFFFB
:10141400DE2A000EDD220FEF0AF0D00E4A6EFF0E18
:101424004B6E46C0D9FF47C0DAFFDECFF6FFDDCFF3
:10143400F7FF0800F5504C6E4D6A4A504C264B504D
:101444004D224D500AE10A0E4C5CD8A02CEF0AF054
:101454002FEF0AF0010E30EF0AF0000E566E576AB5
:1014640048EF0AF046C0D9FF47C0DAFFDECFF6FFE7
:10147400DDCFF7FF0800F550046E056A8CEC10F020
:1014840004C056F005C057F048EF0AF05650571004
:10149400D8A44FEF0AF051EF0AF006EF0AF055EF27
:1014A4000AF055EF0AF046C0D9FF47C0DAFFDECF95
:1014B400F6FFDDCFF7FF0800F550640AD8B465EFF6
:1014C4000AF067EF0AF07BEF0AF046C0D9FF47C085
:1014D400DAFFDECFF6FFDDCFF7FF0800F550690A2B
:1014E400D8A477EF0AF079EF0AF0BDEF0AF07BEFAA
:1014F4000AF046C0D9FF47C0DAFFDE2A000EDD221B
:1015040048C0D9FF49C0DAFFDFCF4AF0020EDE2619
:10151400DFCF4BF0000EDD224AC0D9FF4BC0DAFF0B
:10152400DECF4EF0DDCF4FF0000E4FBEFF0E506EFB
:10153400516E526E536E546E556E44C020F045C0C9
:1015440021F04EC022F04FC023F050C024F051C00F
:1015540025F052C026F053C027F054C028F055C0DF
:1015640029F00AEC08F020C044F021C045F016EF41
:101574000BF016EF0BF046C0D9FF47C0DAFFDECF01
:10158400F6FFDDCFF7FF0800F550250AD8A4CDEF0C
:101594000AF0CFEF0AF0E8EF0AF046C0D9FF47C0DF
:1015A400DAFFDE2A000EDD22000E066E250E056E21
:1015B40044C007F045C008F0E6EC0EF0000E456E9E
:1015C400010E446E16EF0BF016EF0BF046C0D9FF78
:1015D40047C0DAFFDE2A000EDD22000E456E000E43
:1015E400446E16EF0BF016EF0BF046C0D9FF47C060
:1015F400DAFFDECFF6FFDDCFF7FF0800F550056E0A
:10160400066A44C007F045C008F0E6EC0EF046C098
:10161400D9FF47C0DAFFDE2A000EDD22000E456E38
:10162400010E446E16EF0BF01200000E196E000E40
:10163400186E000E126E000E116E25EF0BF00B4AA1
:101644000C2A25EF0BF0010E176E0BC0F6FF0CC031
:10165400F7FF0800F550200AD8B433EF0BF035EF4C
:101664000BF054EF0BF0F70E0D6EFF0E0E6E0BC069
:10167400F6FF0CC0F7FF0800F5500F6E106A0D500E
:101684000F260E501022105009E1050E0F5CD8A051
:101694004EEF0BF050EF0BF054EF0BF0000E176E03
:1016A40054EF0BF017C013F0146A69EF0BF00BC082
:1016B400F6FF0CC0F7FF0800F550046E056AA0ECB5
:1016C4000FF004C013F005C014F069EF0BF01350D1
:1016D4001410D8A470EF0BF072EF0BF021EF0BF0A5
:1016E40080EF0BF080EF0BF0000E126E010E116E06
:1016F4007CEF0BF00B4A0C2AC4EF0BF00BC0F6FF87
:101704000CC0F7FF0800F5500D6E0E6A0E50000A6B
:10171400D8B48FEF0BF0C4EF0BF00D502B0AD8B4F4
:101724007CEF0BF0060AD8B476EF0BF0C4EF0BF0A5
:10173400C4EF0BF0D00E0D6EFF0E0E6E0BC0F6FF55
:101744000CC0F7FF0800F5500F6E106A0D500F26FD
:101754000E5010220F1E101E0F4A102A18C004F03B
:1017640019C005F0000E076E0A0E066EC3EC10F0E9
:101774000F500424186E10500520196E0B4A0C2AC1
:10178400C4EF0BF0D00E0D6EFF0E0E6E0BC0F6FF05
:101794000CC0F7FF0800F5500F6E106A0D500F26AD
:1017A4000E50102210500AE10A0E0F5CD8A0DDEF93
:1017B4000BF0E0EF0BF0010EE1EF0BF0000E156EF5
:1017C400166AF5EF0BF00BC0F6FF0CC0F7FF08002C
:1017D400F550046E056A8CEC10F004C015F005C0D9
:1017E40016F0F5EF0BF015501610D8A4FCEF0BF023
:1017F400FEEF0BF09CEF0BF000EF0CF01150121009
:10180400D8A407EF0CF009EF0CF017EF0CF018C098
:101814000DF019C00EF00D1E0E1E0D4A0E2A0DC03D
:101824000BF00EC00CF01DEF0CF018C00BF019C03B
:101834000CF01DEF0CF01200000E156E13BE27EF16
:101844000CF025EF0CF03BEF0CF0131E121E111ED2
:10185400101E0F1E0E1E0D1E0C6C000E0D220E22ED
:101864000F221022112212221322010E156E3BEFB9
:101874000CF00BBE42EF0CF040EF0CF056EF0CF006
:101884000B1E0A1E091E081E071E061E051E046CDA
:10189400000E052206220722082209220A220B2210
:1018A400010E151A56EF0CF020EE16F0070EDE6A44
:1018B400E806FDE20C500D100E100F101010111060
:1018C40012101310D8B469EF0CF06BEF0CF0C9EFE1
:1018D4000CF0010E146E7BEF0CF0D8900C360D3624
:1018E4000E360F361036113612361336142A7BEFA5
:1018F4000CF013AE80EF0CF082EF0CF06FEF0CF0F5
:1019040086EF0CF086EF0CF0D890163617361836A2
:1019140019361A361B361C361D360C50045C0D5015
:1019240005580E5006580F500758105008581150BB
:10193400095812500A5813500B58D8A0A4EF0CF0B1
:10194400A6EF0CF0B9EF0CF00C50045E0D50055AE4
:101954000E50065A0F50075A1050085A1150095A7F
:1019640012500A5A13500B5A1680B9EF0CF0D89043
:1019740013321232113210320F320E320D320C3257
:10198400142E86EF0CF0C9EF0CF0C9EF0CF01550D3
:10199400D8B4CFEF0CF0D1EF0CF0E3EF0CF01D1E38
:1019A4001C1E1B1E1A1E191E181E171E166C000E56
:1019B4001722182219221A221B221C221D22E3EFAD
:1019C4000CF016C004F017C005F018C006F019C0DA
:1019D40007F01AC008F01BC009F01CC00AF01DC0B3
:1019E4000BF0F5EF0CF01200000E156E0BBEFFEFBE
:1019F4000CF0FDEF0CF013EF0DF00B1E0A1E091E88
:101A0400081E071E061E051E046C000E0522062273
:101A14000722082209220A220B22010E156E13EF57
:101A24000DF013BE1AEF0DF018EF0DF02CEF0DF0C2
:101A3400131E121E111E101E0F1E0E1E0D1E0C6CE8
:101A4400000E0D220E220F22102211221222132226
:101A54002CEF0DF00C500D100E100F101010111073
:101A640012101310D8B439EF0DF03BEF0DF08FEFD7
:101A74000DF0010E146E4BEF0DF0D8900C360D36B0
:101A84000E360F361036113612361336142A4BEF33
:101A94000DF013AE50EF0DF052EF0DF03FEF0DF0DF
:101AA40056EF0DF056EF0DF00C50045C0D50055838
:101AB4000E5006580F500758105008581150095826
:101AC40012500A5813500B58D8A06BEF0DF06DEF5D
:101AD4000DF07FEF0DF00C50045E0D50055A0E50C2
:101AE400065A0F50075A1050085A1150095A1250EA
:101AF4000A5A13500B5A7FEF0DF0D890133212325A
:101B0400113210320F320E320D320C32142E56EFC7
:101B14000DF08FEF0DF08FEF0DF01550D8B495EF59
:101B24000DF097EF0DF0A9EF0DF00B1E0A1E091E24
:101B3400081E071E061E051E046C000E0522062242
:101B44000722082209220A220B22A9EF0DF004C061
:101B540004F005C005F006C006F007C007F008C091
:101B640008F009C009F00AC00AF00BC00BF0BBEF83
:101B74000DF012001CEC11F015EC11F01FEC11F03B
:101B8400D8EC10F0000E0001A36F000EA26F000E3F
:101B9400776E000E766E0F0E606E100E616EAAECFC
:101BA40010F0D5EF0DF074C0A2F075C0A3F0A2C080
:101BB400A0F0A3C0A1F00001A01FA11FA04BA12B66
:101BC4007450A0277550A123A1BFF1EF0DF0A151CE
:101BD40008E1A005D8A0F1EF0DF0F3EF0DF0D5EF7B
:101BE4000DF0010E606E100E616E76C062F077C06B
:101BF40063F0AAEC10F05AEF0EF072507310D8A4F0
:101C040006EF0EF008EF0EF00EEF0EF0000E776EFA
:101C1400000E766ED5EF0DF070507110D8A415EF4C
:101C24000EF017EF0EF026EF0EF072047310D8A426
:101C34001EEF0EF020EF0EF026EF0EF0000E776E82
:101C4400010E766ED5EF0DF078507910D8A42DEFF3
:101C54000EF02FEF0EF0D5EF0DF072047310D8A430
:101C640036EF0EF038EF0EF0D5EF0DF0000E776E74
:101C7400020E766ED5EF0DF0D5EF0DF0D5EF0DF029
:101C8400D5EF0DF0F9EC10F03BEC0FF0000E776E91
:101C9400000E766ED5EF0DF007EC11F03BEC0FF073
:101CA400000E776E000E766ED5EF0DF0D5EF0DF0C9
:101CB40076C0A0F077C0A1F00001A151000AD8B409
:101CC40066EF0EF0D5EF0DF0A051000AD8B4FFEF87
:101CD4000DF0010AD8B444EF0EF0030AD8B44EEF65
:101CE4000EF0D5EF0DF0D5EF0DF0D5EF0DF0D5EFEB
:101CF4000DF034EF02F06EA082EF0EF084EF0EF0E0
:101D040090EF0EF017C00EF018C00FF015C010F0D1
:101D140016C011F022EC10F090EF0EF01ABE95EF01
:101D24000EF097EF0EF09DEF0EF019C01EF01AC0E2
:101D34001FF0A1EF0EF0000E1F6E000E1E6E000EBF
:101D44001D6E000E1C6EB5EF0EF0000E066E200E1A
:101D5400056E15C007F016C008F0E6EC0EF01C4A3C
:101D64001D2AB5EF0EF01E501C5C1D50800A1B6E20
:101D74001F50800A1B58D8A0C2EF0EF0C4EF0EF01B
:101D8400A7EF0EF06EB0C9EF0EF0CBEF0EF0D7EF69
:101D94000EF017C00EF018C00FF015C010F016C0EA
:101DA40011F022EC10F0D7EF0EF017C004F018C0B9
:101DB40005F0F9EC0FF01E500424156E1F50052099
:101DC400166EE5EF0EF0120007500810D8B4EDEFD0
:101DD4000EF0EFEF0EF0FAEF0EF007500810D8A453
:101DE400F6EF0EF0F8EF0EF0FFEF0EF0FAEF0EF054
:101DF4000550EAEC10F03AEF0FF020EE04F0075033
:101E0400D9260850DA22DE50DE10D8B40CEF0FF0D9
:101E14000EEF0FF02BEF0FF020EE04F00750D92651
:101E24000850DA2210EE02F00750E1260850E222B0
:101E3400DE50E65CE650800A0D6EDE50800A0D58D6
:101E4400D8B027EF0FF029EF0FF03AEF0FF02BEF98
:101E54000FF020EE02F00750D9260850DA22DE2ACD
:101E6400000EDD223AEF0FF03AEF0FF03AEF0FF0E9
:101E7400120074C006F075C007F07AC008F052EF83
:101E84000FF07A500818D8B44AEF0FF04CEF0FF067
:101E940052EF0FF06EEF0FF06EEF0FF052EF0FF006
:101EA40006C004F007C005F0041E051E044A052AF6
:101EB400745004267550052205BE6AEF0FF00550D4
:101EC40009E1320E045CD8A06AEF0FF06CEF0FF05A
:101ED40043EF0FF06EEF0FF012005AC05EF05BC0DC
:101EE4005FF0000E696E000E686E8DEF0FF058C043
:101EF40044F059C045F05E0E466E000E476E5CC05D
:101F040048F05DC049F096EC09F04450682645500D
:101F140069228DEF0FF05EC0F6FF5FC0F7FF080087
:101F2400F5500009D8A499EF0FF09BEF0FF079EF6B
:101F34000FF068C058F069C059F01200010E0A6E23
:101F4400200E04180510D8B4AAEF0FF0ACEF0FF070
:101F5400C7EF0FF0F70E066EFF0E076E04C008F011
:101F640005C009F00650082607500922095009E166
:101F7400050E085CD8A0C1EF0FF0C3EF0FF0C7EF58
:101F84000FF0000E0A6EC7EF0FF00AC004F0056AE6
:101F9400CCEF0FF0120006009DA2D3EF0FF0D5EFA7
:101FA4000FF0E1EF0FF09EA2DAEF0FF0DCEF0FF08D
:101FB400E1EF0FF09E92744A752AE1EF0FF075BEBF
:101FC400EDEF0FF0110E745C270E7558D8A0EDEFED
:101FD4000FF0EFEF0FF0F7EF0FF0000E756E000E3D
:101FE400746EF7EF0FF0F7EF0FF07B92110004C05F
:101FF40008F005C009F003EF10F0044A052A03EFC6
:1020040010F004C0D9FF05C0DAFFDF50D8A40DEFEB
:1020140010F00FEF10F0FFEF0FF011EF10F008C009
:1020240006F009C007F0061E071E064A072A0450D8
:102034000624046E05500720056E21EF10F01200EF
:10204400000E146E000E136E35EF10F012C005F082
:10205400066A10C007F011C008F0E6EC0EF0134A4F
:10206400142A35EF10F013500E24D96E14500F209B
:10207400DA6EDF50126E1250D8A443EF10F045EF21
:1020840010F028EF10F047EF10F01200440EF66E37
:10209400220EF76E000EF86E0900F5CF78F00900F5
:1020A400F5CF79F00900F5CF7AF000EE80F0200E3C
:1020B400EE6AE806FDE100EE68F0100EEE6AE8064E
:1020C400FDE17B907B92000EF86E0001BCEF0DF0F9
:1020D40017BE77EF10F0175006E11604D8B075EF6D
:1020E40010F077EF10F085EF10F016C018F017C05D
:1020F40019F0181E191E184A192A18C016F019C00A
:1021040017F08BEF10F016C016F017C017F08BEF16
:1021140010F01200D00E066EFF0E076E04C008F019
:1021240005C009F0065008260750092209500AE1A3
:102134000A0E085CD8A0A1EF10F0A4EF10F0010E75
:10214400A5EF10F0000E046E056AA9EF10F012005E
:10215400620E666E000E676E000E586E000E596EAB
:1021640060C05AF061C05BF0660E5C6E000E5D6E7E
:102174006FEC0FF058C064F059C065F0C2EF10F076
:10218400120004500602F3CF08F0F4CF09F0045013
:102194000702F350092605500602F350092608C029
:1021A40004F009C005F0D7EF10F01200AB8EB00EAA
:1021B400AB6E000EB06E190EAF6E000EB86EF28CE0
:1021C4009D8A9F9AAC84AC98AC8A948C948E1200AD
:1021D400046EEDEF10F09EA8F2EF10F0F4EF10F0A3
:1021E400EDEF10F0F6EF10F004C0ADFF12008C8498
:1021F400000E716E010E706E000E796E000E786E18
:10220400000E736E000E726E12008C94000E716ECE
:10221400000E706E000E796E010E786E000E736EF5
:10222400000E726E12007F0ECA6E9D824E0ECB6E31
:102234009F82120095948C941200D08EF28E12001C
:0322440001003165
:020000040020DA
:08000000FFFFFFFFFFFFFFFF00
:020000040030CA
:0E000000FF421F1EFF8381FF0FC00FE00F4065
:00000001FF
